{
  "contractName": "StockExchange",
  "abi": [
    {
      "anonymous": false,
      "inputs": [
        {
          "indexed": true,
          "internalType": "address",
          "name": "asset_address",
          "type": "address"
        },
        {
          "indexed": false,
          "internalType": "int256",
          "name": "index",
          "type": "int256"
        },
        {
          "indexed": false,
          "internalType": "bytes6",
          "name": "id",
          "type": "bytes6"
        },
        {
          "indexed": false,
          "internalType": "int256",
          "name": "quantity",
          "type": "int256"
        },
        {
          "indexed": false,
          "internalType": "int256",
          "name": "price",
          "type": "int256"
        },
        {
          "indexed": false,
          "internalType": "uint256",
          "name": "timestamp",
          "type": "uint256"
        }
      ],
      "name": "AssetJoined",
      "type": "event"
    },
    {
      "anonymous": false,
      "inputs": [
        {
          "indexed": true,
          "internalType": "address",
          "name": "asset_address",
          "type": "address"
        },
        {
          "indexed": false,
          "internalType": "int256",
          "name": "index",
          "type": "int256"
        },
        {
          "indexed": false,
          "internalType": "bytes6",
          "name": "id",
          "type": "bytes6"
        },
        {
          "indexed": false,
          "internalType": "int256",
          "name": "quantity",
          "type": "int256"
        },
        {
          "indexed": false,
          "internalType": "int256",
          "name": "price",
          "type": "int256"
        },
        {
          "indexed": false,
          "internalType": "uint256",
          "name": "timestamp",
          "type": "uint256"
        }
      ],
      "name": "AssetUpdated",
      "type": "event"
    },
    {
      "anonymous": false,
      "inputs": [
        {
          "indexed": true,
          "internalType": "address",
          "name": "source_address",
          "type": "address"
        },
        {
          "indexed": false,
          "internalType": "int256",
          "name": "source_asset_index",
          "type": "int256"
        },
        {
          "indexed": false,
          "internalType": "int256",
          "name": "target_asset_index",
          "type": "int256"
        },
        {
          "indexed": false,
          "internalType": "bytes6",
          "name": "source",
          "type": "bytes6"
        },
        {
          "indexed": false,
          "internalType": "bytes6",
          "name": "target",
          "type": "bytes6"
        },
        {
          "indexed": false,
          "internalType": "int256",
          "name": "quantity",
          "type": "int256"
        },
        {
          "indexed": false,
          "internalType": "int256",
          "name": "price",
          "type": "int256"
        },
        {
          "indexed": false,
          "internalType": "uint256",
          "name": "timestamp",
          "type": "uint256"
        },
        {
          "indexed": false,
          "internalType": "int8",
          "name": "state",
          "type": "int8"
        }
      ],
      "name": "TransactionExecuted",
      "type": "event"
    },
    {
      "constant": true,
      "inputs": [
        {
          "internalType": "bytes6",
          "name": "_id",
          "type": "bytes6"
        }
      ],
      "name": "getAssetIndex",
      "outputs": [
        {
          "internalType": "int256",
          "name": "index",
          "type": "int256"
        }
      ],
      "payable": false,
      "stateMutability": "view",
      "type": "function"
    },
    {
      "constant": false,
      "inputs": [
        {
          "internalType": "bytes6",
          "name": "_id",
          "type": "bytes6"
        },
        {
          "internalType": "int256",
          "name": "_quantity",
          "type": "int256"
        },
        {
          "internalType": "int256",
          "name": "_price",
          "type": "int256"
        }
      ],
      "name": "register",
      "outputs": [
        {
          "internalType": "bool",
          "name": "success",
          "type": "bool"
        }
      ],
      "payable": true,
      "stateMutability": "payable",
      "type": "function"
    },
    {
      "constant": false,
      "inputs": [
        {
          "internalType": "bytes6",
          "name": "source",
          "type": "bytes6"
        },
        {
          "internalType": "bytes6",
          "name": "target",
          "type": "bytes6"
        },
        {
          "internalType": "int256",
          "name": "quantity",
          "type": "int256"
        }
      ],
      "name": "transact",
      "outputs": [
        {
          "internalType": "bool",
          "name": "success",
          "type": "bool"
        }
      ],
      "payable": true,
      "stateMutability": "payable",
      "type": "function"
    }
  ],
  "bytecode": "0x608060405234801561001057600080fd5b506114fa806100206000396000f3fe6080604052600436106100345760003560e01c80636449a6cd14610039578063e6305e2b146100b0578063f09d56fb1461011c575b600080fd5b6100966004803603606081101561004f57600080fd5b81019080803579ffffffffffffffffffffffffffffffffffffffffffffffffffff1916906020019092919080359060200190929190803590602001909291905050506101b0565b604051808215151515815260200191505060405180910390f35b3480156100bc57600080fd5b50610106600480360360208110156100d357600080fd5b81019080803579ffffffffffffffffffffffffffffffffffffffffffffffffffff19169060200190929190505050610484565b6040518082815260200191505060405180910390f35b6101966004803603606081101561013257600080fd5b81019080803579ffffffffffffffffffffffffffffffffffffffffffffffffffff19169060200190929190803579ffffffffffffffffffffffffffffffffffffffffffffffffffff191690602001909291908035906020019092919050505061050e565b604051808215151515815260200191505060405180910390f35b6000806101bc85610484565b90507fffffffffffffffffffffffffffffffffffffffffffffffffffffffffffffffff8114156103995760018054016001819055506101f96113f8565b60405180608001604052803373ffffffffffffffffffffffffffffffffffffffff1681526020018779ffffffffffffffffffffffffffffffffffffffffffffffffffff191681526020018581526020018681525090508060036000600154815260200190815260200160002060008201518160000160006101000a81548173ffffffffffffffffffffffffffffffffffffffff021916908373ffffffffffffffffffffffffffffffffffffffff16021790555060208201518160000160146101000a81548165ffffffffffff021916908360d01c021790555060408201518160010155606082015181600201559050503373ffffffffffffffffffffffffffffffffffffffff167febcc76143a61ba4ec9f963e9a67028f7232600f7e7c13b3e646d0228f1dddaa560015488888842604051808681526020018579ffffffffffffffffffffffffffffffffffffffffffffffffffff191679ffffffffffffffffffffffffffffffffffffffffffffffffffff191681526020018481526020018381526020018281526020019550505050505060405180910390a250610478565b8360036000838152602001908152602001600020600201819055508260036000838152602001908152602001600020600101819055503373ffffffffffffffffffffffffffffffffffffffff167f663dd3835d5a10515e3ac3f06d5a09431a1b0f17c95ac8f7f9bcb342f70c87518287878742604051808681526020018579ffffffffffffffffffffffffffffffffffffffffffffffffffff191679ffffffffffffffffffffffffffffffffffffffffffffffffffff191681526020018481526020018381526020018281526020019550505050505060405180910390a25b60019150509392505050565b600080600190505b60015481136104e457600115156104c66003600084815260200190815260200160002060000160149054906101000a900460d01b8561135b565b151514156104d75780915050610509565b808060010191505061048c565b507fffffffffffffffffffffffffffffffffffffffffffffffffffffffffffffffff90505b919050565b60008061051a85610484565b9050600061052785610484565b90507fffffffffffffffffffffffffffffffffffffffffffffffffffffffffffffffff82148061057657507fffffffffffffffffffffffffffffffffffffffffffffffffffffffffffffffff81145b1561058657600092505050611354565b60016000540160008190555061059a611453565b6040518060c001604052806003600086815260200190815260200160002060000160149054906101000a900460d01b79ffffffffffffffffffffffffffffffffffffffffffffffffffff191681526020016003600085815260200190815260200160002060000160149054906101000a900460d01b79ffffffffffffffffffffffffffffffffffffffffffffffffffff19168152602001868152602001600360008581526020019081526020016000206001015481526020014281526020016000800b815250905080600260008054815260200190815260200160002060008201518160000160006101000a81548165ffffffffffff021916908360d01c021790555060208201518160000160066101000a81548165ffffffffffff021916908360d01c021790555060408201518160010155606082015181600201556080820151816003015560a08201518160040160006101000a81548160ff021916908360000b60ff16021790555090505060008560036000858152602001908152602001600020600201540312610a63578460036000848152602001908152602001600020600201600082825403925050819055506001600260008054815260200190815260200160002060040160006101000a81548160ff021916908360000b60ff1602179055503373ffffffffffffffffffffffffffffffffffffffff167f7f94a881cf73da9eda54efca0cb1c7d56370b2675e0843d5ed7fb11b00a0e4348484600260008054815260200190815260200160002060000160009054906101000a900460d01b600260008054815260200190815260200160002060000160069054906101000a900460d01b600260008054815260200190815260200160002060010154600260008054815260200190815260200160002060020154600260008054815260200190815260200160002060030154600260008054815260200190815260200160002060040160009054906101000a900460000b604051808981526020018881526020018779ffffffffffffffffffffffffffffffffffffffffffffffffffff191679ffffffffffffffffffffffffffffffffffffffffffffffffffff191681526020018679ffffffffffffffffffffffffffffffffffffffffffffffffffff191679ffffffffffffffffffffffffffffffffffffffffffffffffffff191681526020018581526020018481526020018381526020018260000b60000b81526020019850505050505050505060405180910390a26003600083815260200190815260200160002060000160009054906101000a900473ffffffffffffffffffffffffffffffffffffffff1673ffffffffffffffffffffffffffffffffffffffff167f663dd3835d5a10515e3ac3f06d5a09431a1b0f17c95ac8f7f9bcb342f70c8751836003600086815260200190815260200160002060000160149054906101000a900460d01b6003600087815260200190815260200160002060020154600360008881526020019081526020016000206001015442604051808681526020018579ffffffffffffffffffffffffffffffffffffffffffffffffffff191679ffffffffffffffffffffffffffffffffffffffffffffffffffff191681526020018481526020018381526020018281526020019550505050505060405180910390a261134c565b600060036000848152602001908152602001600020600201541315611166576001600260008054815260200190815260200160002060040160006101000a81548160ff021916908360000b60ff16021790555060036000838152602001908152602001600020600201546002600080548152602001908152602001600020600101819055503373ffffffffffffffffffffffffffffffffffffffff167f7f94a881cf73da9eda54efca0cb1c7d56370b2675e0843d5ed7fb11b00a0e4348484600260008054815260200190815260200160002060000160009054906101000a900460d01b600260008054815260200190815260200160002060000160069054906101000a900460d01b600260008054815260200190815260200160002060010154600260008054815260200190815260200160002060020154600260008054815260200190815260200160002060030154600260008054815260200190815260200160002060040160009054906101000a900460000b604051808981526020018881526020018779ffffffffffffffffffffffffffffffffffffffffffffffffffff191679ffffffffffffffffffffffffffffffffffffffffffffffffffff191681526020018679ffffffffffffffffffffffffffffffffffffffffffffffffffff191679ffffffffffffffffffffffffffffffffffffffffffffffffffff191681526020018581526020018481526020018381526020018260000b60000b81526020019850505050505050505060405180910390a2600160005401600081905550610cad611453565b6040518060c001604052806003600087815260200190815260200160002060000160149054906101000a900460d01b79ffffffffffffffffffffffffffffffffffffffffffffffffffff191681526020016003600086815260200190815260200160002060000160149054906101000a900460d01b79ffffffffffffffffffffffffffffffffffffffffffffffffffff19168152602001600360008681526020019081526020016000206002015488038152602001600360008681526020019081526020016000206001015481526020014281526020016000800b815250905080600260008054815260200190815260200160002060008201518160000160006101000a81548165ffffffffffff021916908360d01c021790555060208201518160000160066101000a81548165ffffffffffff021916908360d01c021790555060408201518160010155606082015181600201556080820151816003015560a08201518160040160006101000a81548160ff021916908360000b60ff1602179055509050506000600360008581526020019081526020016000206002018190555060028060008054815260200190815260200160002060040160006101000a81548160ff021916908360000b60ff1602179055503373ffffffffffffffffffffffffffffffffffffffff167f7f94a881cf73da9eda54efca0cb1c7d56370b2675e0843d5ed7fb11b00a0e4348585600260008054815260200190815260200160002060000160009054906101000a900460d01b600260008054815260200190815260200160002060000160069054906101000a900460d01b600260008054815260200190815260200160002060010154600260008054815260200190815260200160002060020154600260008054815260200190815260200160002060030154600260008054815260200190815260200160002060040160009054906101000a900460000b604051808981526020018881526020018779ffffffffffffffffffffffffffffffffffffffffffffffffffff191679ffffffffffffffffffffffffffffffffffffffffffffffffffff191681526020018679ffffffffffffffffffffffffffffffffffffffffffffffffffff191679ffffffffffffffffffffffffffffffffffffffffffffffffffff191681526020018581526020018481526020018381526020018260000b60000b81526020019850505050505050505060405180910390a26003600084815260200190815260200160002060000160009054906101000a900473ffffffffffffffffffffffffffffffffffffffff1673ffffffffffffffffffffffffffffffffffffffff167f663dd3835d5a10515e3ac3f06d5a09431a1b0f17c95ac8f7f9bcb342f70c8751846003600087815260200190815260200160002060000160149054906101000a900460d01b6003600088815260200190815260200160002060020154600360008981526020019081526020016000206001015442604051808681526020018579ffffffffffffffffffffffffffffffffffffffffffffffffffff191679ffffffffffffffffffffffffffffffffffffffffffffffffffff191681526020018481526020018381526020018281526020019550505050505060405180910390a25061134b565b60028060008054815260200190815260200160002060040160006101000a81548160ff021916908360000b60ff1602179055503373ffffffffffffffffffffffffffffffffffffffff167f7f94a881cf73da9eda54efca0cb1c7d56370b2675e0843d5ed7fb11b00a0e4348484600260008054815260200190815260200160002060000160009054906101000a900460d01b600260008054815260200190815260200160002060000160069054906101000a900460d01b600260008054815260200190815260200160002060010154600260008054815260200190815260200160002060020154600260008054815260200190815260200160002060030154600260008054815260200190815260200160002060040160009054906101000a900460000b604051808981526020018881526020018779ffffffffffffffffffffffffffffffffffffffffffffffffffff191679ffffffffffffffffffffffffffffffffffffffffffffffffffff191681526020018679ffffffffffffffffffffffffffffffffffffffffffffffffffff191679ffffffffffffffffffffffffffffffffffffffffffffffffffff191681526020018581526020018481526020018381526020018260000b60000b81526020019850505050505050505060405180910390a25b5b506001925050505b9392505050565b600080600090505b60068110156113ec5782816006811061137857fe5b1a60f81b7effffffffffffffffffffffffffffffffffffffffffffffffffffffffffffff19168482600681106113aa57fe5b1a60f81b7effffffffffffffffffffffffffffffffffffffffffffffffffffffffffffff1916146113df5760009150506113f2565b8080600101915050611363565b50600190505b92915050565b6040518060800160405280600073ffffffffffffffffffffffffffffffffffffffff168152602001600079ffffffffffffffffffffffffffffffffffffffffffffffffffff1916815260200160008152602001600081525090565b6040518060c00160405280600079ffffffffffffffffffffffffffffffffffffffffffffffffffff19168152602001600079ffffffffffffffffffffffffffffffffffffffffffffffffffff191681526020016000815260200160008152602001600081526020016000800b8152509056fea265627a7a72315820aae0f45cd8693ca45e7f28f64881ba1cc298bc0c5148fd7e1808e78b351ebe3c64736f6c63430005100032",
  "source": "pragma solidity ^0.5.0;\r\n\r\ncontract StockExchange {\r\n    // The asset structure\r\n    struct Asset {\r\n        address creator;\r\n        bytes6 id;  // 6 bytes string\r\n        int price;\r\n        int quantity;\r\n    }\r\n    // The transaction structure\r\n    struct Transaction {\r\n        bytes6 source; // 6 bytes string\r\n        bytes6 target; // 6 bytes string\r\n        int quantity;\r\n        int price;\r\n        uint256 timestamp;\r\n        int8 state; // 0:PENDING / 1:VALIDATED / 2:REJECTED\r\n    }\r\n    // Counts\r\n    int transaction_count;\r\n    int asset_count;\r\n\r\n    // Lists\r\n    mapping (int => Transaction) transactions;\r\n    mapping (int => Asset) assets;\r\n\r\n    // private functions\r\n    // compare 6 bytes string\r\n    function stringsEqual(bytes6 a, bytes6 b) internal pure returns (bool) {\r\n        // @todo unroll this loop\r\n        for (uint i = 0; i < 6; i ++) {\r\n            if (a[i] != b[i]) {\r\n                return false;\r\n            }\r\n        }\r\n        return true;\r\n    }\r\n    // Events\r\n    event AssetJoined(\r\n        address indexed asset_address,\r\n         int index,\r\n         bytes6 id,\r\n         int quantity,\r\n         int price,\r\n         uint256 timestamp);\r\n    event TransactionExecuted(\r\n        address indexed source_address,\r\n         int source_asset_index,\r\n         int target_asset_index,\r\n         bytes6 source, \r\n        bytes6 target,\r\n         int quantity,\r\n         int price,\r\n         uint256 timestamp,\r\n         int8 state);\r\n    event AssetUpdated(\r\n        address indexed asset_address,\r\n        int index,\r\n        bytes6 id,\r\n        int quantity,\r\n        int price, \r\n        uint256 timestamp);\r\n\r\n    // Gets an asset index in the mapping by id\r\n    function getAssetIndex(bytes6 _id) public view returns (int index) {\r\n        for (int i = 1; i <= asset_count; i++) {\r\n            if(stringsEqual(assets[i].id, _id) == true)\r\n                return i;\r\n        } \r\n        return -1;\r\n    }\r\n    \r\n\r\n    // // Gets assets count\r\n    // function getAssetsCount() public view  returns (int uid) {\r\n    //     return asset_count;\r\n    // }\r\n    // // Gets transactions count\r\n    // function getTransactionsCount() public view  returns (int uid) {\r\n    //     return transaction_count;\r\n    // }  \r\n\r\n    // Registers an asset into the assets list\r\n    function register(bytes6 _id, int _quantity, int _price) public payable returns (bool success) {\r\n        int asset_index = getAssetIndex(_id);\r\n        if(asset_index == -1){\r\n            asset_count = asset_count + 1;\r\n            Asset memory _asset = Asset(msg.sender, _id, _price, _quantity); \r\n            assets[asset_count] = _asset;\r\n            emit AssetJoined(msg.sender,asset_count,  _id, _quantity, _price, now);\r\n        } else {\r\n            assets[asset_index].quantity = _quantity; \r\n            assets[asset_index].price = _price;\r\n            emit AssetUpdated(msg.sender, asset_index, _id, _quantity, _price, now);\r\n        }\r\n\r\n        return true;\r\n    }\r\n    // // Gets an asset by index in the list\r\n    // function getAssetByIndex(int i) public view returns (bytes6 id, int price, int quantity) {\r\n    //     if(i >= 1 && i <= asset_count)\r\n    //         return (assets[i].id, assets[i].price, assets[i].quantity);\r\n    //     else\r\n    //         return (\"NONEAA\",-1,-1);\r\n    // }\r\n    // Gets an asset by id (string)\r\n    // function getAsset(bytes6 _id) public view returns (bytes6 id, int price, int quantity) {\r\n    //     for (int i = 1; i <= asset_count; i++) {\r\n    //         if(stringsEqual(assets[i].id, _id) == true)\r\n    //             return (assets[i].id, assets[i].price, assets[i].quantity);\r\n    //     } \r\n    //     return (\"NONEAA\",-1,-1);\r\n    // }\r\n    // executes a transaction where source buys from target a certain quantity\r\n    function transact(bytes6 source, bytes6 target, int quantity)  public payable returns (bool success) {\r\n        int si = getAssetIndex(source);\r\n        int ti = getAssetIndex(target);\r\n        if(si == -1 || ti == -1) {\r\n            return false;\r\n        }\r\n        else {\r\n            transaction_count = transaction_count + 1;\r\n            Transaction memory _t = Transaction(assets[si].id, assets[ti].id, quantity, assets[ti].price, now, 0); \r\n            transactions[transaction_count] = _t;\r\n\r\n            if((assets[ti].quantity - quantity) >= 0) { // validate transaction\r\n                assets[ti].quantity -= quantity;\r\n                transactions[transaction_count].state = 1;\r\n                emit TransactionExecuted(msg.sender,si,ti, transactions[transaction_count].source, transactions[transaction_count].target, transactions[transaction_count].quantity, transactions[transaction_count].price, transactions[transaction_count].timestamp, transactions[transaction_count].state);\r\n                emit AssetUpdated(assets[ti].creator, ti, assets[ti].id, assets[ti].quantity, assets[ti].price, now);\r\n            }\r\n            else if(assets[ti].quantity > 0) { // validate partial transaction \r\n                transactions[transaction_count].state = 1;\r\n                transactions[transaction_count].quantity = assets[ti].quantity;\r\n                emit TransactionExecuted(msg.sender, si, ti, transactions[transaction_count].source, transactions[transaction_count].target, transactions[transaction_count].quantity, transactions[transaction_count].price, transactions[transaction_count].timestamp, transactions[transaction_count].state);\r\n\r\n                // create the rejected transaction\r\n                transaction_count = transaction_count + 1;\r\n                Transaction memory _t1 = Transaction(assets[si].id, assets[ti].id, quantity - assets[ti].quantity, assets[ti].price, now, 0); \r\n                transactions[transaction_count] = _t1;\r\n                assets[ti].quantity = 0;\r\n                transactions[transaction_count].state = 2;\r\n                emit TransactionExecuted(msg.sender, si, ti, transactions[transaction_count].source, transactions[transaction_count].target, transactions[transaction_count].quantity, transactions[transaction_count].price, transactions[transaction_count].timestamp, transactions[transaction_count].state);\r\n                emit AssetUpdated(assets[ti].creator, ti, assets[ti].id, assets[ti].quantity, assets[ti].price, now);\r\n            }\r\n            else {\r\n                transactions[transaction_count].state = 2;\r\n                emit TransactionExecuted(msg.sender, si, ti, transactions[transaction_count].source, transactions[transaction_count].target, transactions[transaction_count].quantity, transactions[transaction_count].price, transactions[transaction_count].timestamp, transactions[transaction_count].state);\r\n            }\r\n        }\r\n        return true;   \r\n     }\r\n    // // Get transaction by index\r\n    // function getTransactionByIndex(int i) public view \r\n    //     returns (bytes6 source, bytes6 target, int quantity, int price, uint256 timestamp, int8 state ) {\r\n    //     if(i >= 1 && i <= transaction_count)\r\n    //         return (transactions[i].source, transactions[i].target, \r\n    //             transactions[i].quantity, transactions[i].price, transactions[i].timestamp, transactions[i].state);\r\n    //     else\r\n    //         return (\"NONEAA\", \"NONEAA\",-1,-1, 0, 2);\r\n    // }    \r\n    \r\n    // Get the next transaction index involving an asset\r\n    // function getNextTransactionIdInvolvingAsset(bytes6 id, int start) public view  returns (int) {\r\n    //     if(start < 1 || start > transaction_count)\r\n    //         return -1;\r\n            \r\n    //     for (int i = start; i <= transaction_count; i++) {\r\n    //         if(stringsEqual(transactions[i].source, id) == true || stringsEqual(transactions[i].target, id))\r\n    //             return i;\r\n    //     }\r\n    //     return -1;\r\n    // }\r\n}",
  "sourcePath": "E:\\smart-contract\\contracts\\Stock.sol",
  "compiler": {
    "name": "solc",
    "version": "0.5.16+commit.9c3226ce.Emscripten.clang"
  },
  "schemaVersion": "3.4.6",
  "updatedAt": "2022-04-26T06:50:29.459Z",
  "devdoc": {
    "methods": {}
  },
  "userdoc": {
    "methods": {}
  }
}